:020000040800F2
:10000000C8080020A50300086D2100086F21000822
:1000100073210008772100087B2100080000000000
:100020000000000000000000000000007F21000828
:1000300081210008000000008321000885210008BC
:10004000BF030008BF030008BF030008BF03000888
:10005000BF030008BF030008BF030008BF03000878
:10006000BF030008BF030008BF030008BF03000868
:10007000BF030008BF030008BF030008B35D00080A
:10008000BF030008BF030008BF030008BF03000848
:10009000BF030008BF030008BF030008BF03000838
:1000A000BF030008BF030008BF030008BF03000828
:1000B00087210008BF030008BF030008BF03000832
:1000C000BF030008BF030008BF030008BF03000808
:1000D000BF030008BF030008BF030008ED6100086C
:1000E000BF030008BF030008BF03000800F002F8C8
:1000F00000F05AF80AA090E8000C82448344AAF168
:100100000107DA4501D100F04FF8AFF2090EBAE865
:100110000F0013F0010F18BFFB1A43F0010318473B
:10012000C0940000E09400000A444FF0000C10F866
:10013000013B13F0070408BF10F8014B1D1108BF65
:1001400010F8015B641E05D010F8016B641E01F805
:10015000016BF9D113F0080F1EBF10F8014BAD1C55
:100160000C1B09D16D1E58BF01F801CBFAD505E073
:1001700014F8016B01F8016B6D1EF9D59142D6D3CD
:10018000704700000023002400250026103A28BFF5
:1001900078C1FBD8520728BF30C148BF0B607047F9
:1001A0001FB51FBD10B510BD06F0C2FD1146FFF70B
:1001B000F7FF01F03DFF06F0E0FD03B4FFF7F2FFAB
:1001C00003BC06F0E1FD00000CB50020019000909A
:1001D0006B48006840F480306949086000BF684897
:1001E000006800F4003000900198401C01900098D5
:1001F00018B90198B0F5A06FF1D16148006810F40A
:10020000003F02D00120009001E000200090009803
:10021000012842D15B48006840F01000594908604D
:100220000846006820F0030008600846006840F0B7
:1002300002000860524840685149486008464068DA
:1002400048600846406840F480604860084640685E
:1002500020F47C1048600846406840F4E81048608C
:100260000846006840F08070086000BF444800689D
:1002700010F0007FFAD04248406820F00300404967
:1002800048600846406840F00200486000BF3C48B3
:10029000406800F00C000828F9D10CBD10B5FFF73C
:1002A00093FF10BD10B53648006840F00100344996
:1002B00008600846406834490840314948600846AB
:1002C0000068324908402E4908600846006820F45A
:1002D000802008600846406820F4FE0048604FF423
:1002E0001F008860FFF7DAFF4FF0006028490860C0
:1002F00010BD10B5002100200022214B5B6803F0E7
:100300000C0121B1042906D0082928D107E0214B8E
:10031000214C236027E01F4B1F4C236023E0184B28
:100320005B6803F47010164B5B6803F480320223A1
:1003300003EB904022B9194B4343174C23600DE067
:100340000F4B5B6813F4003F04D0144B4343124C33
:10035000236003E00F4B43430F4C236003E00D4B3E
:100360000D4C236000BF00BF054B5B68C3F3031354
:100370000B4CE15C084B1B68CB40074C236010BD65
:1003800000100240002002400000FFF8FFFFF6FED0
:1003900008ED00E000127A000000002000093D0096
:1003A000040000200948804709480047FEE7FEE7AF
:1003B000FEE7FEE7FEE7FEE7FEE7FEE7FEE7FEE715
:1003C00004480549054A064B70470000A50200088D
:1003D000ED000008C8020020C8080020C804002062
:1003E000C804002031490143314A1160704770B59B
:1003F000002100230F22C4780CB32D4C246804F490
:10040000E064C4F5E064210AC1F10403CA40447801
:1004100004FA03F18478144021430901254C06783D
:10042000A155047804F01F050124AC4005786D1136
:100430004FF0E02606EB8505C5F8004109E0047899
:1004400004F01F050124AC401B4D0678761145F8D9
:10045000264070BD194A0A400243154B1B1F1A6003
:10046000704739B1124A121D12680243104B1B1D0E
:100470001A6006E00E4A121D126882430C4B1B1DC7
:100480001A607047042808D14FF0E021096941F053
:1004900004014FF0E022116107E04FF0E02109690B
:1004A00021F004014FF0E022116170470000FA05CD
:1004B0000CED00E000E400E080E100E080FFFF1FC1
:1004C00010B50446CA48844208D10121042000F036
:1004D00027FB0021042000F023FB46E0C5488442AE
:1004E00008D10121082000F01BFB0021082000F0AA
:1004F00017FB3AE0C048844208D10121102000F0E7
:100500000FFB0021102000F00BFB2EE0BB488442C3
:1005100008D10121202000F003FB0021202000F061
:10052000FFFA22E0B648844208D10121402000F0C1
:10053000F7FA0021402000F0F3FA16E0B1488442B7
:1005400008D10121802000F0EBFA0021802000F08A
:10055000E7FA0AE0AC48844207D10121801500F097
:10056000DFFA0021A01500F0DBFA10BD10B5012163
:10057000084600F0D5FA0021012000F0D1FA10BDA4
:100580002DE9F0410246002500260020002300242A
:10059000002791F803C00CF00F0591F803C01CF080
:1005A000100F03D091F802C04CEA050591F800C085
:1005B000BCF1000F31D0146800202BE04FF0010C8B
:1005C0000CFA00F3B1F800C00CEA03069E4220D1F9
:1005D00083004FF00F0C0CFA03F7BC4305FA03FC41
:1005E0004CEA040491F803C0BCF1280F06D14FF087
:1005F000010C0CFA00FCC2F814C00AE091F803C028
:10060000BCF1480F05D14FF0010C0CFA00FCC2F808
:1006100010C0401C0828D1D31460B1F800C0BCF150
:10062000FF0F34DD546800202EE000F1080C4FF07D
:10063000010808FA0CF3B1F800C00CEA03069E4268
:1006400021D183004FF00F0C0CFA03F7BC4305FADD
:1006500003FC4CEA040491F803C0BCF1280F05D157
:1006600000F1080C08FA0CF8C2F8148091F803C0E5
:10067000BCF1480F07D100F1080C4FF0010808FA4F
:100680000CF8C2F81080401C0828CED35460BDE896
:10069000F0814FF6FF710180022181700421C17049
:1006A00070470246002093680B4201D0012000E011
:1006B000002070470146886880B2704702460020DB
:1006C000D3680B4201D0012000E0002070470146B2
:1006D000C86880B2704701617047416170470AB1D4
:1006E000016100E041617047C16070474FF48032A2
:1006F0000A43826181618261826982697047024630
:100700000020424B18684FF68073184040EA0210F0
:1007100008433E4B186070473D49C8617047F0B5CB
:100720000A46002300240021002500F00046B6F10F
:10073000004F02D1354EF16901E0344E7168C0F3CB
:10074000034583B200F44016B6F5401F08D121F0EE
:1007500070612E4E766826F070662C4F7E6012E037
:1007600000F48016B6F5801F06D1032606FA05F4BC
:10077000A14341F0706106E0460D360103FA06F62A
:10078000B14341F0706122B1460D360103FA06F61D
:10079000314300F00046B6F1004F02D11B4EF1612B
:1007A00001E01A4E7160F0BD30B500228B071C0FBE
:1007B0000F2303FA04F2154B08338C1053F824303E
:1007C0009343124C08348D1044F8253023468C1086
:1007D00053F824308C07240F00FA04F423430B4C05
:1007E00008348D1044F8253030BD0A490860704740
:1007F00000080140000C01400010014000140140BD
:1008000000180140001C0140002001400000014090
:1008100000002042DC002042DD48006840F001007A
:10082000DB49086008464068DA490840D849486012
:1008300008460068D8490840D5490860084600685D
:1008400020F4802008600846406820F4FE004860DC
:100850004FF41F0088607047CD49096821F480314A
:10086000CB4A11601146096821F480211160B0F56E
:10087000803F03D0B0F5802F0ED106E0C44909684F
:1008800041F48031C24A116007E0C149096841F46E
:10089000A021BF4A116000E000BF00BF704710B543
:1008A00001460022002300204A11012A02D1B84C3F
:1008B000236806E0022A02D1B54C236A01E0B44C59
:1008C000636A01F01F02012494401C4201D0012000
:1008D00000E0002010BD38B5002000900024002565
:1008E00000BF3120FFF7DBFF05460098401C009059
:1008F0000098B0F5A06F01D0002DF2D03120FFF7A5
:10090000CEFF08B1012400E00024204638BD014696
:1009100000209F4A106820F0F80040EAC1001060F3
:1009200070479E490860704702460020984B5868FF
:1009300020F47C1042EA01031843954B586070473D
:1009400096490866704701460020914A506820F099
:1009500003000843506070478D48406800F00C0069
:100960007047014600208A4A506820F0F000084392
:100970005060704701460020854A506820F4E060CE
:1009800008435060704701460020814A506820F4B7
:10099000605040EAC1005060704729B17C4A527AE9
:1009A00002437B4B5A7204E0794A527A8243784B75
:1009B0005A7270477A490860704701460020744AAD
:1009C000506820F440400843506070470021754A49
:1009D00011706F4A82F82010012802D0042808D133
:1009E00003E001216F4A117004E005216D4A117086
:1009F00000E000BF00BF70476B4908607047644962
:100A0000096A0143624A11627047674944390860C4
:100A1000704730B500210022002400235C4D6D6832
:100A200005F00C0121B1042905D0082923D105E0E6
:100A30005E4D056022E05D4D05601FE0544D6D6820
:100A400005F47012524D6D6805F48034022505EBF3
:100A500092421CB9564D554305600BE04C4D6D68F4
:100A600015F4003F03D0524D5543056002E04F4D51
:100A70005543056002E04D4D056000BF00BF444D89
:100A80006D6805F0F00109094A4D6B5C0568DD40B1
:100A900045603F4D6D6805F4E061090A454D6B5CAA
:100AA0004568DD4085603A4D6D6805F46051C90ABE
:100AB000404D6B5C4568DD40C560354D6D6805F4A3
:100AC0004041890B3C4D6B5CC568B5FBF3F5056196
:100AD00030BD29B12E4A526902432D4B5A6104E0C0
:100AE0002B4A526982432A4B5A61704729B1284ADE
:100AF00092690243264B9A6104E0254A9269824337
:100B0000234B9A61704729B1214AD2690243204B95
:100B1000DA6104E01E4AD26982431D4BDA617047F4
:100B200029B11B4AD2680243194BDA6004E0184A23
:100B3000D2688243164BDA60704729B1144A1269B1
:100B40000243134B1A6104E0114A12698243104BAD
:100B50001A61704714494039086070470F49C864EA
:100B600070470B49C87170470948406A40F080706F
:100B700007494862704701460020054A92680A42C8
:100B800001D0012000E000207047014988727047C1
:100B9000001002400000FFF8FFFFF6FE0000424296
:100BA000D8004242201002408004424200127A00E3
:100BB00000093D00140000202400002010B5044668
:100BC000FE48844208D10121C014FFF7A9FF00218B
:100BD000E014FFF7A5FFC4E0B4F1804F08D1012174
:100BE0000846FFF7AAFF00210120FFF7A6FFB8E0A3
:100BF000F348844208D101210220FFF79EFF002123
:100C00000220FFF79AFFACE0EE48844208D10121B0
:100C10000420FFF792FF00210420FFF78EFFA0E0E1
:100C2000E948844208D101210820FFF786FF00210E
:100C30000820FFF782FF94E0E448844208D10121B4
:100C40001020FFF77AFF00211020FFF776FF88E0E1
:100C5000DF48844208D101212020FFF76EFF0021E8
:100C60002020FFF76AFF7CE0DA48844208D10121A6
:100C70004014FFF755FF00216014FFF751FF70E0AB
:100C8000D548844209D10121C804FFF749FF00215A
:100C90004FF40020FFF744FF63E0D048844209D1BD
:100CA00001210805FFF73CFF00214FF48010FFF7FA
:100CB00037FF56E0CA48844209D101214805FFF7B1
:100CC0002FFF00214FF40010FFF72AFF49E0C5482D
:100CD000844208D101214020FFF72FFF002140204E
:100CE000FFF72BFF3DE0C048844208D1012180205E
:100CF000FFF723FF00218020FFF71FFF31E0BB48F3
:100D0000844208D101218015FFF717FF0021A015AB
:100D1000FFF713FF25E0B648844209D101210804FA
:100D2000FFF7FEFE00214FF48030FFF7F9FE18E0D8
:100D3000B048844209D101214804FFF7F1FE0021A7
:100D40004FF40030FFF7ECFE0BE0AB48844208D1D3
:100D500001218804FFF7E4FE00214FF48020FFF713
:100D6000DFFE10BD00220288944B98420ED0994BB2
:100D700098420BD0B0F1804F08D0914B984205D0EB
:100D8000904B984202D0904B984204D14FF68F730B
:100D90001A404B881A438D4B984207D08C4B98428F
:100DA00004D04FF6FF431A40CB881A4302808B8849
:100DB00083850B880385814B98420BD0854B9842E5
:100DC00008D08B4B984205D08A4B984202D08A4B70
:100DD000984201D10B7A038601238382704770B554
:100DE000002400220023058C4FF6FE763540058452
:100DF000028C8388048B4FF68F752C40B51E2C40D7
:100E00000D882C43751E2A400D892A434D882A439C
:100E10006A4DA8420BD06F4DA84208D0744DA8422D
:100E200005D0744DA84202D0734DA84213D14FF69D
:100E3000F7752A404D892A434FF6FB752A408D8865
:100E40002A434FF6FF652B404FF6FF552B408D8907
:100E50002B43CD892B4383800483CD8885860284F0
:100E600070BD70B5002400220023058C4FF6EF768C
:100E700035400584028C8388048B48F6FF752C402E
:100E80004FF6FF452C400D884FF6FF7606EA052504
:100E90002C434FF6DF752A400D8906EA05152A43D3
:100EA0004D8806EA05152A43444DA84202D0494D13
:100EB000A8421DD14FF67F752A404D894FF6FF7627
:100EC00006EA05152A434FF6BF752A408D8806EAC3
:100ED00005152A434FF6FF352B404FF2FF752B4087
:100EE0008D8906EA85052B43CD8906EA85052B43C6
:100EF00083800483CD880587028470BD70B500248B
:100F000000220023058C4FF6FF6635400584028CD5
:100F10008388848B4FF68F752C404FF6FC752C40E0
:100F20000D882C434FF6FF552A400D894FF6FF766A
:100F300006EA05252A434D8806EA05252A431F4D62
:100F4000A84202D0234DA8421DD14FF2FF752A407E
:100F50004D894FF6FF7606EA05252A434FF6FF3501
:100F60002A408D8806EA05252A434EF6FF752B4058
:100F70004DF6FF752B408D8906EA05152B43CD896B
:100F800006EA05152B4383808483CD8885870284F8
:100F900070BD70B5002200230024058C4EF6FF764C
:100FA00035400584038C8488828B48F6FF752A407F
:100FB0004FF6FF452A400D8820E00000002C01403C
:100FC0000004004000080040000C004000100040F9
:100FD0000014004000340140004C0140005001402A
:100FE0000054014000180040001C00400020004058
:100FF0000040014000440140004801404FF6FF76A8
:1010000006EA05252A434DF6FF752B400D8906EAB1
:1010100005352B434D8806EA05352B43FA4DA8428A
:1010200002D0FA4DA84208D14BF6FF752C408D89AD
:101030004FF6FF7606EA85152C4384808283CD889F
:10104000A0F84050038470BD828B4FF2FF331A40EA
:101050008283828B4FF6FF7303EA01231A43828354
:101060007047F0B50C461546002200210026078C7B
:101070004EF6FF7C07EA0C070784828B018C4FF643
:10108000FF7707EA043640F6FF473A404FF6FF770E
:1010900007EA05273A434FF6FF7707EA03373A4353
:1010A000D94FB8420ED0D94FB8420BD0B0F1804FD3
:1010B00008D0D74FB84205D0D64FB84202D0D64F4D
:1010C000B84206D14DF6FF77394046F48057394390
:1010D00005E047F6FF57394044F48057394382838F
:1010E0000184F0BD828B4FF6F3731A408283828BAA
:1010F0000A4382837047F0B50C4615460022002152
:101100000026078C4FF6FF6C07EA0C070784828BDA
:10111000018C4FF6FF7707EA04264FF60C773A402A
:101120004FF6FF7707EA03172F433A43B64FB8420B
:101130000ED0B64FB8420BD0B0F1804F08D0B44FAC
:10114000B84205D0B34FB84202D0B34FB84206D12F
:101150004FF6FF57394046F48077394305E04FF2A8
:10116000FF57394044F48077394382830184F0BDCE
:10117000028B4FF2FF331A400283028B4FF6FF734C
:1011800003EA01231A4302837047F0B50C46154663
:10119000002200210026078C4FF6EF7C07EA0C079F
:1011A0000784028B018C4FF6FF7707EA041640F69E
:1011B000FF473A404FF6FF7707EA03373A434FF6C7
:1011C000FF7707EA05273A438F4FB8420ED08F4F7B
:1011D000B8420BD0B0F1804F08D08D4FB84205D047
:1011E0008C4FB84202D08C4FB84206D14FF6DF7711
:1011F000394046F01007394305E04FF65F77394034
:1012000044F01007394302830184F0BD028B4FF68E
:10121000F3731A400283028B0A4302837047F0B5CE
:101220000C46154600220021068C4FF6FE773E4004
:101230000684028B018C4FF60C7632407E1C06EA47
:1012400003162E433243704EB0420ED06F4EB04262
:101250000BD0B0F1804F08D06D4EB04205D06D4E2E
:10126000B04202D06C4EB04206D14FF6FD7631400E
:1012700044F00106314305E04FF6F576314044F085
:101280000106314302830184F0BD70B505460C466A
:101290005D4885420ED05D4885420BD0B5F1804F48
:1012A00008D05B48854205D05A48854202D05A484A
:1012B000854200D100E000BF208850B92389A28870
:1012C00061882846FFF7ABFFE1882846FFF79EFFBD
:1012D00025E0208804280AD12389A288618828462D
:1012E000FFF753FFE1882846FFF742FF17E0208809
:1012F00008280AD12389A28861882846FFF7FBFEC7
:10130000E1882846FFF7EEFE09E02389A28861887C
:101310002846FFF7A6FEE1882846FFF795FE70BD38
:101320002DE9F04105460C4600260127608808B9E2
:10133000022600E00026A088012801D1022700E053
:1013400001272088A0B92389A28861882846FFF751
:1013500066FFE1882846FFF759FF23893A46314660
:101360002846FFF712FFE1882846FFF701FF13E048
:101370002389A28861882846FFF707FFE18828466D
:10138000FFF7F6FE23893A4631462846FFF747FF26
:10139000E1882846FFF73AFFBDE8F0810A884B88CC
:1013A0001A438B881A43CB881A430B891A434B89FB
:1013B0001A438B891A43A0F8442070474FF6FF71F7
:1013C000818000210180C18041800172704700212D
:1013D000018041808180C180018141818181C18101
:1013E0007047002101804180012181800021C1805E
:1013F000018170470021018041808180C18001818D
:101400004181818170470000002C0140003401407F
:101410000004004000080040000C004021B1028898
:1014200042F00102028004E002884FF6FE731A4087
:101430000280704731B1B0F8442042F40042A0F875
:10144000442005E0B0F84420C2F30E02A0F8442086
:1014500070471AB183890B43838102E083898B43F0
:10146000838170478182704741EA0203A0F84830C7
:1014700070471AB183890B43838102E083898B43D0
:101480008381704701894FF6F872114001817047DE
:101490000A46002101894FF68F73194011430181DB
:1014A000704730B504460D4629462046FFF7F0FF49
:1014B000208940F00700208130BD2DE9F04104462D
:1014C0000D4616461F46602D06D13B460122314689
:1014D0002046FFF75AFE05E03B46012231462046F2
:1014E000FFF79DFE29462046FFF7D2FF208940F0F6
:1014F00007002081BDE8F08130B50C46002101894C
:10150000C9B24FF6FF7505EA032515432543294364
:10151000018130BD2DE9F04105460E46174698463B
:10152000002443463A4631462846FFF7E5FF2C891A
:101530004FF6F870044044F007044FF68F700440F3
:1015400044F070042C81BDE8F081F0B504460D46EE
:1015500016461F463B46324629462046FFF7CCFF3B
:10156000208940F480402081F0BD0185828270474F
:101570000A46002101884FF68F73194011430180FC
:101580007047F0B50C4615461E4600210022002388
:101590000189028B038C4FF6F877394021434FF6CF
:1015A000FC473A4040F201173A434FF6DD773B40A3
:1015B0004FF6FF7707EA06172F433B43018102836B
:1015C0000384F0BD0A460021018B4FF68F7319404A
:1015D0001143018370470A460021018B48F6FF73CF
:1015E00019404FF6FF7303EA022319430183704742
:1015F0000A460021818B4FF68F7319401143818376
:1016000070470A460021818B48F6FF7319404FF658
:10161000FF7303EA022319438183704721B10288D3
:1016200042F08002028004E002884FF67F731A4085
:101630000280704721B1828842F00402828004E077
:1016400082884FF6FB731A408280704721B18288EE
:1016500042F00802828004E082884FF6F7731A4055
:101660008280704721B1828842F00102828004E0CA
:1016700082884FF6FE731A40828070470A46002126
:10168000018B4FF6F77319401143018370470A46E7
:101690000021018B4FF2FF7319404FF6FF7303EAED
:1016A00002231943018370470A460021818B4FF6BC
:1016B000F77319401143818370470A460021818BDB
:1016C0004FF2FF7319404FF6FF7303EA02231943E9
:1016D000818370470A460021018B4FF6FB73194046
:1016E0001143018370470A460021018B4FF6FF33F7
:1016F00019404FF6FF7303EA022319430183704731
:101700000A460021818B4FF6FB73194011438183F8
:1017100070470A460021818B4FF6FF3319404FF680
:10172000FF7303EA02231943818370470A460021AD
:10173000018B4FF67F7319401143018370470A46AE
:101740000021018BC1F30E014FF6FF7303EA022360
:101750001943018370470A460021818B4FF67F733E
:1017600019401143818370470A460021818BC1F3E0
:101770000E014FF6FF7303EA02231943818370477A
:101780000A460021018C4FF6FD7319401143018474
:1017900070470A460021018C4FF6F7731940114338
:1017A000018470470A460021018C4FF6DF7319400F
:1017B0004FF6FF7303EA02131943018470470A4688
:1017C0000021018C4FF67F7319404FF6FF7303EA37
:1017D00002131943018470470A460021018C4FF619
:1017E000FF5319404FF6FF7303EA022319430184A4
:1017F00070470A460021018C4FF2FF7319404FF6E3
:10180000FF7303EA02231943018470470A4600214B
:10181000018C4DF6FF7319404FF6FF7303EA023354
:1018200019430184704730B5002301248C40A3B2D2
:10183000048C9C430484048C02FA01F5ADB22C4361
:10184000048430BD30B5002304248C40A3B2048C42
:101850009C430484048C02FA01F5ADB22C43048449
:1018600030BD70B50346002000241846183001250D
:101870008D40ACB21D8CA5431D8409B1082909D146
:1018800000EB6100056825F07005056005681543EB
:1018900005600EE00D1FC5F34E052844056825F4CC
:1018A000E045056005684FF6FF7606EA02263543F7
:1018B000056070BD21B1028842F00202028004E09E
:1018C00002884FF6FD731A400280704721B10288EA
:1018D00042F00402028004E002884FF6FB731A40D3
:1018E0000280704721B1828842F08002828004E049
:1018F00082884FF67F731A408280704702884FF6C5
:10190000F7731A40028002880A4302807047828877
:101910004FF68F731A40828082880A438280704714
:1019200002894FF6F8731A40028102890A43028144
:10193000704702894FF67F731A40028102890A4379
:101940000281704781847047818570478186704726
:101950000187704781877047A0F840107047028860
:101960004FF6FF431A40028002880A430280704704
:101970000146888E70470146088F70470146888F60
:1019800070470146B1F8400070470146888C7047A7
:101990000146088D704702460020138A0B4201D091
:1019A000012000E000207047CA430282704730B532
:1019B0000246002000230024158A05EA01039589C8
:1019C00005EA010413B10CB1012000E0002030BD94
:1019D000CA4302827047000010B50446FB488442A7
:1019E00009D101218803FFF79BF800214FF48040C3
:1019F000FFF796F832E0F648844209D10121480405
:101A0000FFF79BF800214FF40030FFF796F825E030
:101A1000F048844209D101218804FFF78EF80021A3
:101A20004FF48020FFF789F818E0EB48844209D191
:101A30000121C804FFF781F800214FF40020FFF7CF
:101A40007CF80BE0E548844208D101210805FFF746
:101A500074F800214FF48010FFF76FF810BD2DE9E6
:101A6000F04786B005460E460024A24600BFA146B8
:101A70000027B08900B100BF2F462C8A4CF6FF70BA
:101A80000440F08804432C82AC894EF6F3100440E5
:101A9000B08831890843718908430443AC81AC8A1A
:101AA0004FF6FF400440B0890443AC8201A8FEF722
:101AB000B0FFC648874202D1DDF810A001E0DDF892
:101AC0000CA0A88910F4004F08D00AEBCA0000EB64
:101AD0000A1031684900B0FBF1F807E00AEBCA00D0
:101AE00000EB0A1031688900B0FBF1F86420B8FB04
:101AF000F0F004012009642101FB1089A88910F489
:101B0000004F08D0322000EBC900B0FBF1F000F02C
:101B10000700044308E0322000EB09106421B0FB09
:101B2000F1F000F00F0004432C8106B0BDE8F0870F
:101B30004FF41651016000218180C18001810C2188
:101B4000418100218181704710B502460020108A32
:101B50004FF2FF0318400B884C8823438C882343A3
:101B6000CC8823431843108210BD0021018041809E
:101B70008180C180704721B1828942F40052828104
:101B800004E082894DF6FF731A4082817047F0B5F8
:101B900003460024002600250020A1F510676A3FB7
:101BA00000D100BF1846C1F3421401F01F060127FF
:101BB00007FA06F5012C01D10C3004E0022C01D10A
:101BC000103000E014301AB107682F43076002E0BC
:101BD0000768AF430760F0BD1AB1838A0B43838265
:101BE00002E0838A8B4383827047028A4FF6F07348
:101BF0001A400282028A0A430282704782894FF2A7
:101C0000FF731A40828182890A438281704721B121
:101C1000828942F00202828104E082894FF6FD73DC
:101C20001A4082817047028A4FF6DF731A4002829F
:101C3000028A0A430282704721B1028A42F480423A
:101C4000028204E0028A4BF6FF731A400282704758
:101C5000C1F308028280704701468888C0F30800FB
:101C60007047818941F0010181817047028BD2B2B6
:101C70000283028B42EA012202837047028B02F444
:101C80007F420283028B0A430283704721B1828A1A
:101C900042F02002828204E0828A4FF6DF731A400B
:101CA0008282704721B1828A42F01002828204E06F
:101CB000828A4FF6EF731A408282704721B1828A7E
:101CC00042F00802828204E0828A4FF6F7731A40DB
:101CD0008282704721B1828942F40042828103E00E
:101CE0008289C2F30E028281704721B1828A42F456
:101CF0000062828204E0828A4FF2FF731A4082827D
:101D00007047828A4FF6FB731A408282828A0A43A6
:101D10008282704721B1828A42F00202828204E00C
:101D2000828A4FF6FD731A40828270470246002075
:101D3000B1F5007F00D100BF13880B4201D0012014
:101D400000E00020704701F40072B2F5007F00D17E
:101D500000BFCA430280704770B5024600240023CA
:101D600000250020A1F510666A3E00D100BFC1F336
:101D7000421501F01F03012606FA03F3012D02D1DB
:101D80009689334006E0022D02D1168A334001E0E5
:101D9000968A33400C12012606FA04F41688344061
:101DA00013B10CB1012000E0002070BD10B500227D
:101DB0000023A1F510646A3C00D100BF0A1201247F
:101DC0009440A3B2DC43048010BD00000038014001
:101DD0000044004000480040004C004000500040DB
:101DE00001684FF6FE721140016000210160416000
:101DF0008160C1608C49884208D18B4908394968A3
:101E000041F00F01884A083A51608AE0864914314E
:101E1000884208D184490839496841F0F001824A72
:101E2000083A51607DE080492831884208D17E49D6
:101E30000839496841F470617B4A083A516070E0A2
:101E400079493C31884208D177490839496841F4D9
:101E50007041754A083A516063E0734950318842D5
:101E600008D171490839496841F470216E4A083A2D
:101E7000516056E06C496431884208D16A4908399A
:101E8000496841F47001684A083A516049E066497E
:101E90007831884208D164490839496841F0706155
:101EA000614A083A51603CE06049884206D1011F0E
:101EB000096841F00F01021F116032E05B491431E3
:101EC000884208D15949091F096841F0F001574A71
:101ED000121F116025E055492831884208D1534925
:101EE000091F096841F47061504A121F116018E01F
:101EF0004E493C31884208D14C49091F096841F4D8
:101F000070414A4A121F11600BE048495031884223
:101F100007D14649091F096841F47021434A121F3D
:101F20001160704710B50022026847F6F0739A43BB
:101F30000C6A8B6823430C6923434C6923438C69E7
:101F40002343CC6923434C6A23438C6A23431A43BB
:101F50000260CB6843600B6883604B68C36010BD50
:101F60000021016041608160C16001614161816166
:101F7000C161016241628162704721B1026842F031
:101F80000102026004E002684FF6FE731A4002602C
:101F900070471AB103680B43036002E003688B4388
:101FA00003607047416070470146486880B27047DF
:101FB00001460020002211F0805F03D01B4B083B3C
:101FC0001A6802E0184B083B1A680A4201D0012047
:101FD00000E00020704710F0805F03D01349091F14
:101FE000086002E010490839486070470146002047
:101FF000002211F0805F03D00C4B083B1A6802E00E
:10200000094B083B1A680A4201D0012000E0002079
:10201000704710F0805F03D00449091F086002E098
:10202000014908394860704708000240080402402E
:102030001FB500240020009001900290039004F04E
:1020400037FD03F088FE012240213A48FFF7C4FD26
:1020500040F2DC5000F0EFF800F0AEFB00F083FB44
:1020600041F61F41282000F0A1F84FF47A7000F0EB
:10207000E2F84FF47A7000F0DEF84FF47A7000F076
:10208000DAF84FF47A7000F0D6F800F0C2FB04F0F2
:102090005EF900F0BEFB01E000F0BBFB002126482A
:1020A000006806F00DF9F7D04FF47A7000F0C3F82D
:1020B0003FE022480078012806D100201F4908701F
:1020C00055211F48FFF7C4FD1E480078002830DD69
:1020D000601CC4B200201B49087000F09AFB04F099
:1020E0004CFA04F070F904F07DFC174D2D88ABB26A
:1020F000164D2D88AAB2164D2D88A9B2154D2D88E2
:10210000A8B200F03AFB002413480068009013487E
:102110000068019012491348006806F0A1F90546CD
:1021200006F002F90290104800880390684603F018
:10213000C1FFBEE700380140540000202900002004
:102140000048004028000020100100200C01002061
:102150000801002004010020AC0000202C00002019
:102160000000C842C000002062010020704700BF8C
:10217000FEE700BFFEE700BFFEE700BFFEE77047D7
:1021800070477047704710B501218807FFF70FFCB3
:1021900018B101218807FFF71BFC03480078401C99
:1021A0000149087010BD0000280000207FB50546D9
:1021B0000C4601210846FEF7A6FCADF80850ADF824
:1021C00004400020ADF80A00ADF8060001A94FF068
:1021D0008040FEF7C7FD012241218807FFF739F94A
:1021E00001218807FFF71AF91C208DF80000022052
:1021F0008DF8010001208DF803006846FEF7F7F81E
:102200007FBD000010B548246FF00400FEF73AF9D6
:10221000E11704EB5171C910224A11701046007881
:1022200000EB4001C1EBC0104FF6FF7101EAC000A6
:102230001D49088010BD01461B4A12884A434FF0D1
:10224000E0235A6100229A6101221A6100BF4FF017
:10225000E022106910F0010F02D010F4803FF6D098
:1022600000224FF0E0231A619A61704701460D4A3F
:1022700012784A434FF0E0235A6100229A6101220A
:102280001A6100BF4FF0E022106910F0010F02D078
:1022900010F4803FF6D000224FF0E0231A619A61DB
:1022A00070470000300000203200002010B5EC48DC
:1022B000406820F47040EA4948600846406840F4AD
:1022C000405048600120E7490860E749C1F8B00183
:1022D0004FF00400FFF7CAFF0020E24908604FF00A
:1022E0000400FFF7C3FF0020DF49C1F8B00110BDB3
:1022F00010B5DB48406820F47040D9494860084672
:10230000406840F4405048600020D8490860D649F1
:10231000C1F8AC014FF00400FFF7A8FF0120D3493A
:102320000860D149C1F8AC014FF00400FFF79EFFEF
:1023300010BD10B50024CA48406820F47040C84958
:1023400048600846406840F4004048600120C549A4
:102350000860FFF78BFF0120C349C1F8B001FFF708
:1023600085FF07E0601CC4B2FA2C03DDFFF7C0FF55
:10237000012010BDBE4800680028F3D1BB490860A9
:1023800000BFF6E710B50020B8490860B4484068BF
:1023900020F47040B24948600846406840F440501C
:1023A00048604FF00000B049C1F8AC014FF00200A6
:1023B000FFF75CFF0120AD4908604FF00200FFF716
:1023C00055FF0020A849C1F8B00110BD10B500208C
:1023D000A6490860A248406820F47040A0494860BF
:1023E0000846406840F4405048604FF001009E4964
:1023F000C1F8AC014FF00200FFF738FF01209B4904
:1024000008604FF00200FFF731FF00209649C1F845
:10241000B00110BD70B504469148406820F470408A
:102420008F4948600846406840F4405048600020AA
:102430008E49086005461AE0E0098A4908604FEABB
:1024400044604FEA10644FF00200FFF70FFF0120D5
:102450008549C1F8B0010220FFF708FF0020834939
:1024600008604FF00200FFF701FF681CC5B2082D9D
:10247000E2DB70BD70B500247948406820F47040FC
:10248000774948600846406840F4004048600025AD
:1024900016E00020754908604FF00200FFF7E6FEE5
:1024A00001207149C1F8B0016006040E704800684F
:1024B00008B1601CC4B20120FFF7D8FE681CC5B289
:1024C000082DE6DB204670BD08B501211020FEF77F
:1024D0000DFB4FF4C050ADF8000010208DF8030044
:1024E00003208DF8020069465D48FEF749F8012097
:1024F0005E4908605C49C1F8AC0108BD2DE9F041B6
:1025000006460F4690461C46FFF7D0FE002141EAE2
:102510004601C8B2FFF77EFFFFF70BFF20B1FFF7C0
:10252000E7FE0020BDE8F0813846FFF773FFFFF7B4
:1025300000FF00250BE02078FFF76CFFFFF7F9FEA6
:1025400018B1FFF7D5FE0020ECE7641C6D1C454573
:10255000F1DBFFF7CDFE0120E4E72DE9F041044671
:102560000D4616461F463B46324629462046FFF793
:10257000C5FF10B10020BDE8F0814FF0FF30FAE751
:102580002DE9F04105460F4614461E46FFF78EFE24
:10259000002141EA4501C8B2FFF73CFFFFF7C9FE41
:1025A00020B1FFF7A5FE0020BDE8F0813846FFF717
:1025B00031FFFFF7BEFEFFF779FE012101EB450178
:1025C000C8B2FFF727FFFFF7B4FE0CE0FFF752FF9A
:1025D0003070012C02D1FFF7F9FE01E0FFF7D2FEC7
:1025E000761C601EC4B2002CF0D1FFF781FE0120E2
:1025F000DAE72DE9F04104460D4616461F463B46F4
:10260000324629462046FFF7BBFF10B10020BDE847
:10261000F0814FF0FF30FAE770B504460D461646DC
:10262000FFF744FE002141EA4401C8B2FFF7F2FE81
:10263000FFF77FFE18B1FFF75BFE002070BD284654
:10264000FFF7E8FEFFF775FE3046FFF7E3FEFFF702
:1026500070FEFFF74DFE0120F0E7002070470000FC
:1026600000100140AC01224200002242B00122428F
:102670002C01224208B501210220FEF744FA012173
:102680000C20FEF733FAC020ADF8000018208DF8BA
:10269000030003208DF8020069464448FDF770FFEF
:1026A0000320ADF8000069464148FDF769FF08BD09
:1026B000F0B587B007460C4615461E4640F2E73097
:1026C000ADF8140040F21F10ADF810000020ADF876
:1026D0001600ADF8120004A93648FEF743FB60204F
:1026E000ADF800000120ADF80200ADF80670002042
:1026F000ADF8080069462F48FEF771FB08212D4808
:10270000FEF7BCFF0120ADF80200ADF806406946B7
:102710002848FEF7A6FB08212648FEF7B8FF01204F
:10272000ADF80200ADF8065069462248FEF7E6FB18
:1027300008212048FEF7B8FF0120ADF80200ADF8EF
:10274000066069461B48FEF724FC08211948FEF77D
:10275000B4FF01211748FEF761FF01211548FEF77C
:102760005DFE07B0F0BD10B5FFF784FFFA231A46EF
:1027700019461846FFF79CFF10BD2DE9F0410446AD
:102780000F4615461E4621460A48FFF7DFF8394630
:102790000848FFF7DDF829460648FFF7DBF8314621
:1027A0000448FFF7D9F8BDE8F081000000080140B7
:1027B000000C01400004004070B50024FFF784FEC7
:1027C00001F060FD04461CBB792000F05BFDE0B920
:1027D000782000F034FBC0B9642000F010FCA0B9F0
:1027E00002F0B6FB88B99A4801F0C6FB054602F034
:1027F000B9FB50B940F2731002F0F5FF28B964201C
:1028000002F06AFD08B901F048FB012000F0F2FC7B
:1028100070BD2DE9F04F89B08E488F498F4B904A9B
:10282000CDE900108F49904803F03CF98A480088B0
:1028300010F4807F7ED08A49086805F0B1FD044617
:102840004FF09D4105F07AFC88490860844948684A
:1028500005F0A6FD04464FF09D4105F06FFC84494C
:1028600008607F49886805F09BFD04464FF09D4154
:1028700005F064FC7F4908607949C86805F090FD5F
:1028800004464FF09D4105F059FC7B4908607B48A8
:1028900000687B490860754801684FF0804005F08A
:1028A000DFFD069073480168069805F0D9FD824661
:1028B0006F4801684FF0404005F0D2FD06906E4829
:1028C0000168069805F0CCFD8346514605F0C8FB2B
:1028D000079005F099FB064604F0CEFA80464FF0CB
:1028E0006632684B05F080F8044604F0FBFD66494B
:1028F0000860604801684FF0804005F0B1FD03902A
:102900005C480168039805F0ABFD824658480168B1
:102910004FF0404005F0A4FD03905548016803982E
:1029200005F09EFD8346514605F0A2FE81464FF01C
:102930007E5100E089E005F093FB044605F064FB5E
:10294000CDE90401494801684FF0804005F088FD59
:10295000834647480168584605F082FD8146454850
:1029600001684FF0804005F07BFD834642480168D6
:10297000584605F075FD8246494605F071FB044650
:1029800005F042FB0746DDE9042304F0C5FC4FF0E7
:1029900066323C4BCDE9060105F026F8054604F009
:1029A000A1FD3A49086034480168006805F058FD07
:1029B000039030480168006805F052FD02902C48F1
:1029C0000168006805F04CFD8346284801680068EE
:1029D00005F046FD5946019005F042FB82460299FA
:1029E00005F046FE8146039905F042FE044605F0D7
:1029F0000BFBCDE90401204801681C48006805F084
:102A00002FFD82461B4801681948006805F028FD23
:102A10008346514605F024FB81464FF0804105F086
:102A20001FFD044605F0F0FA0746DDE9042304F033
:102A300073FC4FF06632134BCDE9060104F0D4FF6E
:102A4000054604F04FFD0D49086009B0BDE8F08F60
:102A5000340000206E0000206C0000205C0000208C
:102A600030010020660000206000002040000020AF
:102A700044000020480000204C00002058000020A6
:102A80007000002066A64C4050000020540000203A
:102A90000146FA48407A30B1012808D002280AD00D
:102AA000032810D10BE04FF4804008800EE041F67F
:102AB0009C7008800AE04FF48050088006E04FF4D4
:102AC0000060088002E04FF0FF30704700BFEB4825
:102AD000C07C10B10888401008800020F5E701464E
:102AE000E648007A30B1012807D0022808D0032830
:102AF0000CD108E0E24808600BE0E248086008E01A
:102B0000E148086005E0E148086002E04FF0FF306E
:102B1000704700BF0020FBE708B5D848807A10B99D
:102B20004FF0FF3008BD00200090D44A1268D17BDE
:102B3000D24A526810786B460122FFF70EFD10B1A1
:102B40004FF0FF30EEE7CD4A12685179CB4A526818
:102B500010786B460122FFF700FD10B14FF0FF30F7
:102B6000E0E7C64A12681179C44A526810786B4689
:102B70000122FFF7F2FC10B14FF0FF30D2E7BF485F
:102B800090F82400002853D00C200090BB4A126813
:102B90001179BA4A526810786B460122FFF7DDFCC2
:102BA00010B14FF0FF30BDE73220FFF744FBC020EB
:102BB0000090B248807A10F0010F04D09DF8000018
:102BC00040F020000090AD4A12681179AB4A52687B
:102BD00010786B460122FFF7C0FC10B14FF0FF30B8
:102BE000A0E7A648407C10B10220009001E0002040
:102BF0000090A24A1268D17BA04A526810786B46B6
:102C00000122FFF7AAFC10B14FF0FF308AE7002045
:102C100000909A4A12685179984A526810786B4627
:102C20000122FFF79AFC002855D04FF0FF3079E7DA
:102C300004200090914A12681179904A52681078E5
:102C40006B460122FFF789FC10B14FF0FF3069E7B6
:102C50008A48807C20B98948807A10F0010F02D11F
:102C60004020009001E060200090844A12681179B1
:102C7000824A526810786B460122FFF76EFC10B151
:102C80004FF0FF304EE73220FFF7D5FA7B48407C0B
:102C900010B10120009001E000200090774A1268F6
:102CA000D17B764A526810786B460122FFF755FCBB
:102CB00010B14FF0FF3035E7704A126851796F4A12
:102CC000526810786D4B10330122FFF746FC10B1AB
:102CD0004FF0FF3026E7002024E738B50446674868
:102CE00090F82400C0B114B10220009001E000204F
:102CF0000090624A1268D17B604A526810786B4635
:102D00000122FFF72AFC10B14FF0FF3038BD9DF8CB
:102D100000105A48417423E05848807A10B94FF0A7
:102D2000FF30F3E724B15548407C08B10020EDE7BF
:102D300014B10120009001E0002000904F4A126879
:102D4000D17B4E4A526810786B460122FFF705FC92
:102D500010B14FF0FF30D9E79DF80010474841749B
:102D60000020D3E738B504464448807A10B94FF0C4
:102D7000FF3038BDBC2C02DB0120009015E0622C36
:102D800002DB0220009010E02A2C02DB03200090DE
:102D90000BE0142C02DB0420009006E00A2C02DB7E
:102DA0000520009001E0062000903448C07A9DF88C
:102DB0000010884201D10020DBE7304A1268917888
:102DC0002E4A526810786B460122FFF7C6FB10B1FD
:102DD0004FF0FF30CDE79DF800102848C172002069
:102DE000C7E738B504462CB12448C089A04201DBAE
:102DF000642C02DD4FF0FF3038BD2048C08990FBC5
:102E0000F4F0401EC0B200901C4A126892F82110E3
:102E10001A4A526810786B460122FFF79EFB10B1E8
:102E20004FF0FF30E8E71548C1899DF80000401CCD
:102E300091FBF0F081B2114801850020DCE770B50C
:102E40000446002624F001040C4890F8240008B140
:102E5000002070BD0948807A10B94FF0FF30F8E7C4
:102E60000648057C807A2040044908740846007CA6
:102E7000A0420DD04FF0FF360BE0000074000020A0
:102E80000000034300008342333303423333834162
:102E9000002614B9FA48007D18B10120FFF71DFF84
:102EA00002E00020FFF719FF3CB1FFF735FE20B12B
:102EB000F34805744FF0FF30CBE73046C9E738B52B
:102EC0000446EF4890F82300A04201D1002038BD0D
:102ED00014B13020009001E000200090E848807C90
:102EE00020B19DF8000040F002000090E44890F806
:102EF000220020B19DF8000040F080000090E04AE0
:102F00001268117DDE4A526810786B460122FFF785
:102F100024FB10B14FF0FF30D9E7D94880F82340A7
:102F20000020D4E738B50446282C02DD4FF0FF30EE
:102F300038BDDCB90020FFF7C2FF00208DF800008B
:102F400007208DF80100CE4A1268917CCC4A526865
:102F500010786B460222FFF700FB10B14FF0FF30F4
:102F6000E6E70021C64801750020E1E70120FFF7F0
:102F7000A6FF20208DF80000012C06D100208DF83E
:102F800001000520FFF7EEFE17E0052C06DC01200E
:102F90008DF801000520FFF7E5FE0EE0142C06DC9D
:102FA00002208DF801000A20FFF7DCFE05E0032077
:102FB0008DF801001420FFF7D5FE9DF801000721D0
:102FC00001EB8010C0B28DF80100AD4A1268917C0F
:102FD000AB4A526810786B460222FFF7BEFA10B176
:102FE0004FF0FF30A4E70821A5488172002101734A
:102FF000012101750020FFF722FF002098E738B576
:1030000004469F48807A10B94FF0FF3038BD9C4885
:1030100090F8240010B14FF0FF30F7E79848007D9A
:1030200050B134B1282C04DCE0B2FFF77BFF002064
:10303000ECE70020FFF776FF042C01DA042404E01B
:10304000B4F57A7F01DD4FF47A744FF47A7090FB17
:10305000F4F0401EC0B20090894A12685178884A44
:10306000526810786B460122FFF777FA10B14FF0E3
:10307000FF30CBE79DF80000401C4FF47A7191FBC4
:10308000F0F081B27E48C1810146098D642902DADF
:103090000146098D00E064210846FFF7A2FE784949
:1030A000C9894810FFF75EFE0020AFE738B5044637
:1030B0007348807CA04201D1002038BD002C46D04E
:1030C0006F4A126811796E4A526810786B46012275
:1030D000FFF78FFA10B14FF0FF30EEE79DF80000D8
:1030E00020F020000090664A12681179644A526804
:1030F00010786B460122FFF730FA10B14FF0FF3025
:10310000DBE70320FFF797F8022000905C4890F877
:10311000220020B19DF8000040F080000090584847
:1031200090F8230020B19DF8000040F0300000909E
:10313000534A1268117D524A526810786B46012238
:10314000FFF70BFA002851D04FF0FF30B5E74C4A9B
:10315000126811794A4A526810786B460122FFF7CB
:1031600048FA10B14FF0FF30A7E74548807A10F0D9
:10317000010F05D09DF8000040F02000009004E011
:103180009DF8000020F0200000903D4A126811795F
:103190003B4A526810786B460122FFF7DEF910B106
:1031A0004FF0FF3089E70320FFF745F8344890F8E7
:1031B000220010B18020009001E0002000903048F3
:1031C00090F8230020B19DF8000040F030000090FE
:1031D0002B4A1268117D2A4A526810786B460122E8
:1031E000FFF7BBF910B14FF0FF3066E72448847455
:1031F000002062E738B50446214890F82400A04238
:1032000001D1002038BD24B31D4890F8250010B925
:103210004FF0FF30F6E70020FFF75FFD0020FFF7DB
:1032200045FF1749C88CFFF7EAFE002000901449BB
:10323000496808786B4601222321FFF78EF90121A6
:103240000F4880F824100120FFF747FDFFF764FCCA
:1032500013E00020FFF741FD0948007C0090084979
:10326000496808786B4601222321FFF776F900218F
:10327000034880F82410FFF74FFC0020C2E700004D
:103280007400002038B5044614F0700F02D00120FD
:10329000009005E014B10020009001E04020009073
:1032A000F74A1268917CF64A526810786B46012200
:1032B000FFF753F920B10021F1488172481E38BD53
:1032C0009DF8000020F04001ED48017300200090BF
:1032D00014F0400F04D19DF8000040F0040000906D
:1032E00014F0200F04D19DF8000040F0020000907F
:1032F00014F0100F04D19DF8000040F00100009080
:1033000014F0080F04D19DF8000040F03800009040
:10331000DB4A1268D17CDA4A526810786B46012287
:10332000FFF71BF920B10021D5488172481EC6E77E
:1033300024B1082C02D00020FFF7C1FD14F0010FCA
:1033400003D00120FFF7B2FE02E00020FFF7AEFE3F
:10335000CB488472002101753220FEF76CFF0020FB
:10336000ADE738B50446C648807A10B94FF0FF3053
:1033700038BD022C06D0042C07D0082C08D0102C05
:103380000CD108E0002000900BE00820009008E03D
:103390001020009005E01820009002E04FF0FF3070
:1033A000E6E700BFB648407A9DF80010B0EBE10FA9
:1033B00001D10020DCE7B24A1268D179B04A5268E4
:1033C00010786B460122FFF7C8F810B14FF0FF30BC
:1033D000CEE79DF80000C110A94841720020C7E760
:1033E00038B50446A648807A10B94FF0FF3038BD92
:1033F000FA2C09D0B4F5FA7F09D0B4F57A7F09D058
:10340000B4F5FA6F0CD108E0002000900BE0082022
:10341000009008E01020009005E01820009002E0E5
:103420004FF0FF30E3E700BF9548007A9DF80010A9
:10343000B0EBE10F01D10020D9E7914A12689179F0
:103440008F4A526810786B460122FFF786F810B158
:103450004FF0FF30CBE79DF80000C010884908729C
:103460000020C4E77CB50A2607250120FFF71EFED1
:1034700000208DF80000824991F82A006B46012255
:103480000A21FFF76AF808B107207CBD40208DF8BB
:1034900000007B4991F82A006B4601220C21FFF7BE
:1034A0005CF800B166E008208DF80000744991F8DE
:1034B0002A006B4601220A21FFF74FF800B159E0BC
:1034C00000BF0A20FEF7B7FE6D4991F82A006B464F
:1034D00001220221FFF78DF800B14BE09DF80000BA
:1034E00010F0010F00D004E03000A6F10101CEB2CF
:1034F000E7D100BF9DF8000010F0010F00D139E0C6
:103500005F4991F82A006B4606220321FFF771F804
:1035100000B12FE000259DF80100000200B29DF8E7
:10352000001040EA0104642C02DC14F1640F01DA9B
:1035300045F001059DF80300000200B29DF802105D
:1035400040EA0104642C02DC14F1640F01DA45F056
:1035500002059DF80500000200B29DF8041040EA43
:10356000010414F5967F02DC14F57A7F01DA45F048
:10357000040500BF00208DF80000414991F82A00A1
:103580006B4601220C21FEF7E8FF00208DF80000B9
:103590003B4991F82A006B4601220A21FEF7DDFF24
:1035A0000020FFF783FD28466FE72DE9FC5F064604
:1035B0000F46002532494968087801AB03220D21E6
:1035C000FFF717F810B10720BDE8FC9F9DF8040035
:1035D00000F01F008DF804009DF8050000F01F00AA
:1035E0008DF805009DF8060000F01F008DF806001C
:1035F00000245DE056F8240057F82410B0EB010BCE
:1036000001D4594601E0CBF10001084604F0C8FEA0
:103610004FF08F41009004F091FD814601A8005DBC
:1036200068B31849086804F0D3FE83465946164823
:1036300004F084FD804604E01449404604F010FF85
:10364000804601A8005D401E10F0FF0001A908554A
:10365000F2D14146484604F071FD83464FF07E5159
:1036600005F006F882462AF0004B06488169584664
:1036700004F0C2FF1BD20120A040054317E007E081
:10368000740000208488000800B04C4554E3853F56
:10369000F9480169484604F0AFFE05D3F648416990
:1036A000484604F0A9FF02D20120A0400543641C53
:1036B000032C9FDB284687E77CB50546EF49496820
:1036C000087801AB04220D21FEF793FF08B1072013
:1036D0007CBD9DF80700C0F301109DF8041001F0B7
:1036E000E00140EAE1008DF800009DF80700C0F31A
:1036F00081009DF8051001F0E00140EAE1008DF83D
:1037000001009DF8070000F003009DF8061001F08D
:10371000E00140EAE1008DF8020000241CE01DF801
:10372000040018B9002045F8240013E0D44845F8F7
:10373000240006E055F82400D24904F091FE45F833
:1037400024001DF80400401E10F0FF000DF80400D6
:10375000F0D100BF601CC4B2032CE0DB0020B7E74F
:103760002DE9FE4F06460F4600256846FFF7A4FFE9
:10377000002440E056F8240057F82410B0EB010A6A
:1037800001D4514601E0CAF10001084604F008FEE8
:1037900083464FF08F4104F0D1FC80465DF8240051
:1037A000002104F08DFD16D05DF82410404604F091
:1037B000C5FC82464FF07E5104F05AFF814629F045
:1037C000004AAD48416A504604F016FF12D201206B
:1037D000A04005430EE0A848C169404604F00CFE35
:1037E00005D3A548016A404604F006FF02D2012035
:1037F000A0400543641C032CBCDB2846BDE8FE8FBB
:103800002DE9F04F87B005460C46914601208DF812
:10381000100000208DF81100984A1268917C974A98
:103820005268107804AB0222FEF797FE20B14FF0E9
:10383000FF3007B0BDE8F08FC820FEF7FCFC002089
:103840008DF810008D4A1268D17B8C4A526810782E
:1038500004AB0122FEF781FE10B14FF0FF30E8E724
:10386000864A12685179854A5268107804AB012261
:10387000FEF773FE10B14FF0FF30DAE77F4A1268AF
:10388000917C7E4A5268107804AB0122FEF765FEF7
:1038900010B14FF0FF30CCE7784A1268D17D774AFB
:1038A0005268107804AB0122FEF757FE10B14FF0BA
:1038B000FF30BEE7714A12681179704A5268107879
:1038C00004AB0122FEF749FE10B14FF0FF30B0E724
:1038D0000C208DF81000694A12681179674A526805
:1038E000107804AB0122FEF738FE10B14FF0FF3024
:1038F0009FE70F20FEF79FFC6048406B407A8DF8F1
:1039000010005E4A126891785C4A5268107804ABE5
:103910000122FEF722FE10B14FF0FF3089E7574831
:10392000406B007A8DF81000544A12685178534A5F
:103930005268107804AB0122FEF70FFE10B14FF071
:10394000FF3076E7B9F1000F07D04C48406B807A22
:1039500040F0E0008DF8100004E04848406B807AA9
:103960008DF81000454A12689179444A52681078DF
:1039700004AB0122FEF7F1FD10B14FF0FF3058E724
:10398000B9F1000F07D03D48406BC07A40F0E0002D
:103990008DF8100003E03848C07A8DF81000374ADF
:1039A0001268D179354A5268107804AB0122FEF7CB
:1039B000D4FD10B14FF0FF303BE7B9F1000F02D05A
:1039C000C820FEF738FC40208DF810002B4A126802
:1039D00011792A4A5268107804AB0122FEF7BDFD26
:1039E00010B14FF0FF3024E778208DF81000234A03
:1039F00012685179214A5268107804AB0122FEF70F
:103A0000ACFD10B14FF0FF3013E71B498889FEF77A
:103A100012FC00208DF81000184A12685179174ADC
:103A20005268107804AB0122FEF797FD10B14FF0F9
:103A3000FF30FEE6114A1268917A104A52681078F7
:103A400004AB0222FEF7D5FD10B14FF0FF30F0E6D7
:103A50009DF811009DF8101040EA012B0C209BFBF3
:103A6000F0F0C6B20020A86068602860A0606060C6
:103A7000206082466EE00000848800087400002008
:103A80007B14AE3E1D5A843FFE4A1268D17AFD4A2D
:103A90005268107804AB0C22FEF7ABFD10B14FF06A
:103AA000FF30C6E69DF811009DF8101040EA012095
:103AB00000B2ADF808009DF813009DF8121040EA1E
:103AC000012000B2ADF80A009DF815009DF8141011
:103AD00040EA012000B2ADF80C00BDF908102068E2
:103AE00008442060BDF90A10606808446060BDF9B0
:103AF0000C10A0680844A0609DF817009DF81610EF
:103B000040EA012000B2ADF800009DF819009DF8D0
:103B1000181040EA012000B2ADF802009DF81B0029
:103B20009DF81A1040EA012000B2ADF80400BDF97A
:103B30000010286808442860BDF90210686808442D
:103B40006860BDF90410A8680844A8600AF1010083
:103B500000F0FF0AB24597DBCB48D0F800C02868D8
:103B6000C117090441EA10410704624600233846A0
:103B700002F0AFFF32460023CDE9020102F0A9FFB7
:103B80002860C148D0F800C06868C117090441EA3C
:103B90001041070462460023384602F09AFF32467D
:103BA0000023CDE9020102F094FF6860B648D0F826
:103BB00000C0A868C117090441EA10410704624621
:103BC0000023384602F085FF32460023CDE902018A
:103BD00002F07FFFA860AC48D0F804C02168C81785
:103BE000000440EA11480F0462460023384641466B
:103BF00002F06FFF32460023CDE9020102F069FFB7
:103C00002060A148D0F804C06068C117090441EAE7
:103C10001041070462460023384602F05AFF32463C
:103C20000023CDE9020102F054FF60609648D0F80D
:103C300004C0A068C117090441EA104107046246A4
:103C40000023384602F045FF32460023CDE9020149
:103C500002F03FFFA060A068002804DDA068A0F586
:103C60008030A06003E0A06800F58030A0600020F4
:103C7000DFE501468348007C08700020704701465C
:103C8000804890F8240010B14FF0FF3070477D4815
:103C9000C08908800020F9E701467A48C07A0828E0
:103CA00017D2DFE800F01704070A0D101318BC2024
:103CB000088013E06220088010E02A2008800DE0D0
:103CC000142008800AE00A20088007E00520088008
:103CD00004E000BF00BF0020088000BF00BF00203C
:103CE000704701466748407A30B1012807D0022862
:103CF00008D003280CD108E0022008700BE0042053
:103D0000087008E00820087005E01020087002E044
:103D10004FF0FF30704700BF5A48C07C18B1087898
:103D20004006000E08700020F4E701465548007A6E
:103D300030B1012807D0022809D003280FD10AE0AA
:103D4000FA2008800EE04FF4FA7008800AE04FF481
:103D50007A70088006E04FF4FA60088002E00020E4
:103D6000088000BF00BF002070472DE9F34F8DB0E1
:103D70000F4602200C90434890F8240020B1002008
:103D8000FFF738FA012600E0002603A8FFF7CDFF71
:103D900005A8FFF7A6FF01A8FFF77EFF02A8FFF71F
:103DA0006EFF384890F80AB004A8FFF762FF0024BD
:103DB00007E0002239460D98FFF722FD00B902E026
:103DC000641C022CF5DB00BF022C01D1002531E080
:103DD000002407E0012206A909A8FFF711FD00B998
:103DE00002E0641C022CF5DB00BF022C01D100258F
:103DF00020E006A93846FFF7B3FC00F0FF0809A948
:103E00000D98FFF7D2FB00F0FF090025B9F1000F74
:103E100001D145F00105B8F1000F01D145F00205CF
:103E2000FFF720FB00F0FF0ABAF1000F01D145F0C7
:103E3000040500BFFF2013490872FF211148417299
:103E4000C1724FF6FF71C181FF218172017401219E
:103E50000173BDF80C00FFF7C3FA9DF81400FFF7DB
:103E600080FABDF80400FEF77DFFBDF80800FFF7FB
:103E7000C6F85846FFF706FA9DF81000FEF7DFFF78
:103E80003EB103E074000020848800080120FFF7A1
:103E9000B1F928460FB0BDE8F08F70B588B002A91F
:103EA00005A8FFF762FF0446072C3CD101A8FEF7E6
:103EB00016FE059804F074FA0646019904F0D0FA4B
:103EC000054604F031FA0590069804F069FA0646B2
:103ED000019904F0C5FA054604F026FA0690079801
:103EE00004F05EFA0646019904F0BAFA054604F0B9
:103EF0001BFA079005A801F0C6F86846FEF7C8FD52
:103F0000BDF80010029848430290BDF800100398D5
:103F100048430390BDF8001004984843049002A859
:103F200001F044F900BF08B070BD014691F90020CE
:103F3000002A01DD00201EE091F90020002A01DAAC
:103F4000042018E091F90120002A01DD012012E08F
:103F500091F90120002A01DA05200CE091F90220F4
:103F6000002A01DD022006E091F90220002A01DA90
:103F7000062000E00720704710B504462046FFF7F2
:103F8000D4FF0346E01CFFF7D0FF43EAC00083B232
:103F9000A01DFFF7CAFF43EA801083B2184610BD88
:103FA000704738B5002419E0FE480068C07AA04286
:103FB00004D0FC480068407DA04200D10CE0F949E3
:103FC000496808786B4601222146FEF712FB10B1C2
:103FD0004FF0FF3038BD00BF601CC4B2F1484068EC
:103FE0000079A042E0DC0020F4E770B504460D46FD
:103FF000EC480068C07AA04204D0EA480068407DDE
:10400000A04202D14FF0FF3070BDE6484068007911
:10401000A04202DC4FF0FF30F6E7E2494968087839
:104020002B4601222146FEF7E4FAEDE738B50120E0
:10403000FFF73CF80C240EE06B46012200212046DD
:10404000FEF7D7FA054625B99DF80000482800D1AB
:1040500003E0601CC4B20F2CEEDD00BF0F2C05DDA9
:10406000D1A001F07AFF4FF0FF3038BDCD4880F885
:104070002A4000208DF80000CA4991F82A006B46BA
:1040800001220A21FEF769FA10B14FF0FF30ECE788
:104090000120FEF7D0F80F208DF80000C14991F8FB
:1040A0002A006B4601220A21FEF757FA10B14FF0A1
:1040B000FF30DAE70120FEF7BEF8BA4991F82A008E
:1040C0006B4603221021FEF794FA10B14FF0FF3037
:1040D000CBE79DF800008030B24988859DF801103B
:1040E0008031B048C1859DF80210803101860020E2
:1040F0008DF80000AB4991F82A006B4601220A2195
:10410000FEF72BFA10B14FF0FF30AEE70120FEF7BB
:1041100092F80020FEF7CAFF40208DF80000A14A67
:104120001268D17D9F4A526810786B460122FEF7D3
:1041300014FA10B14FF0FF3097E79A4890F82A0030
:1041400040F080008DF80000964A1268D17E954AB2
:10415000526810786B460122FEF7FFF910B14FF05C
:10416000FF3082E702208DF800008E4A1268117F2E
:104170008C4A526810786B460122FEF7EEF910B1B6
:104180004FF0FF3071E788208DF80000854A1268F3
:10419000517F844A526810786B460122FEF7DDF9A0
:1041A00010B14FF0FF3060E77E4890F82A008DF89C
:1041B00000007C4A1268917F7A4A526810786B46F8
:1041C0000122FEF7CAF910B14FF0FF304DE70A2087
:1041D0008DF80000734A1268D17F724A52681078D5
:1041E0006B460122FEF7B9F910B14FF0FF303CE702
:1041F00081208DF800006B4A126892F82010694AFD
:10420000526810786B460122FEF7A7F910B14FF003
:10421000FF302AE701208DF80000624A126892F808
:104220002310604A526810786B460122FEF795F918
:1042300010B14FF0FF3018E703208DF80000594A05
:10424000126892F82410574A526810786B4601227F
:10425000FEF783F910B14FF0FF3006E780208DF8AC
:104260000000504A126892F826104E4A52681078A0
:104270006B460122FEF771F910B14FF0FF30F4E602
:104280000020F2E61CB580208DF80000454A126837
:10429000917C444A526810786B460122FEF75DF922
:1042A00010B14FF0FF301CBD6420FDF7C4FF0020AB
:1042B0008DF800003B4A1268917C3A4A52681078A7
:1042C0006B460122FEF749F910B14FF0FF30EAE7E3
:1042D000344A1268917D334A526810786B46062240
:1042E000FEF787F910B14FF0FF30DCE79DF80500CD
:1042F000C007400F9DF8031001F0010140EA4100A2
:104300009DF8011001F0010140EA01048CB1012C7B
:1043100003D101212348C17430E0022C03D10021D4
:104320002048C1742AE025A001F017FE4FF0FF30AD
:10433000B9E71C4A1268D1781A4A526810786B465D
:104340000122FEF756F910B14FF0FF30ABE79DF8B0
:10435000000000F00F042CB9224801F0FEFD4FF0E0
:10436000FF30A0E7042C06D11FA001F0F6FD0121CB
:104370000C48C17402E000210A48C174FF210948B9
:104380008172FF2007490872FF2106484172C172FD
:104390004FF6FF71C181FF21017481744FF6FF71E7
:1043A000018531E074000020436F6D7061737320EC
:1043B0006E6F7420666F756E642E0A00556E73758D
:1043C00070706F7274656420736F66747761726564
:1043D0002070726F64756374207265762025642E78
:1043E0000A000000AC88000848616C662073656EA6
:1043F0007369746976697479207061727420666F6C
:10440000756E642E0A0000000121017380F82210ED
:10441000002180F82310417501751630016041605C
:104420008160163880F8241080F82510C1844FF47C
:10443000FA60FEF7D5FF10B14FF0FF3033E70220EE
:10444000FEF78FFF10B14FF0FF302CE72A20FEF768
:1044500089FC10B14FF0FF3025E73220FEF7CFFD89
:1044600010B14FF0FF301EE70020FEF7E8FC10B15E
:104470004FF0FF3017E7FFF7D9FD0A20FEF7B1FC38
:1044800010B14FF0FF300EE70020FEF7FBFE0020DA
:1044900009E77CB504460D46F948807A10F0700FA4
:1044A00002D14FF0FF307CBDF54A1268117BF44A0F
:1044B000526810786B460622FEF79BF810B14FF059
:1044C000FF30F0E79DF801009DF8001040EA012060
:1044D00000B220809DF803009DF8021040EA012000
:1044E00000B260809DF805009DF8041040EA0120AC
:1044F00000B2A0800020D6E77CB504460D46E04817
:10450000807A10F0080F02D14FF0FF307CBDDC4AFA
:104510001268517BDA4A526810786B460622FEF721
:1045200068F810B14FF0FF30F0E79DF801009DF8FA
:10453000001040EA012000B220809DF803009DF8A1
:10454000021040EA012000B260809DF805009DF84D
:10455000041040EA012000B2A08015B12846FFF700
:104560001FFD0020D2E72DE9FE4F05460C46C4484A
:10457000807A18B94FF0FF30BDE8FE8FC04A12684C
:10458000917BBF4A5268107802AB0222FEF731F8E5
:1045900010B14FF0FF30EFE79DF809009DF80810CB
:1045A00040EA012006B214B12046FFF7F9FCB449F5
:1045B0004968C88803F00CFFB14901904968B1F916
:1045C000080003F0EDFE8346304603F0E9FE59464D
:1045D000009004F04DF88246019903F0AFFD81464A
:1045E000A84903F03DFD80464FF08F4103F038FFAE
:1045F000074603F099FE28600020BDE710B588B09B
:1046000004461CB94FF0FF3008B010BD206828B92F
:10461000606818B9A06808B90020F5E798494968AA
:10462000087806AB03221146FDF7E3FF10B14FF007
:10463000FF30E9E79DF81800082101EB201000F099
:104640000F00ADF800009DF8190001EB201000F0FC
:104650000F00ADF802009DF81A0001EB201000F0E9
:104660000F00ADF8040020684100BDF900004030A3
:1046700091FBF0F000B2ADF8100060684100BDF9A8
:104680000200403091FBF0F000B2ADF81200A068DB
:104690004100BDF90400403091FBF0F000B2ADF8EC
:1046A000140077494968087806AB06221146FDF7E1
:1046B000A0FF10B14FF0FF30A6E79DF819009DF85C
:1046C000181040EA012000B2ADF808009DF81B0068
:1046D0009DF81A1040EA012000B2ADF80A009DF8DA
:1046E0001D009DF81C1040EA012000B2ADF80C003E
:1046F000BDF81000BDF80810084400B2ADF8100075
:10470000BDF81200BDF80A10084400B2ADF812005E
:10471000BDF81400BDF80C10084400B2ADF8140048
:10472000BDF81000000A8DF81800BDF81000C0B2E6
:104730008DF81900BDF81200000A8DF81A00BDF8B6
:104740001200C0B28DF81B00BDF81400000A8DF8ED
:104750001C00BDF81400C0B28DF81D00484949681E
:10476000087806AB06221146FDF7F7FE10B14FF0B0
:10477000FF3049E7002047E701464148008D0880A7
:104780000020704701463E48807A10B10120087031
:1047900001E0002008700020704738B50446384812
:1047A000807A10B94FF0FF3038BD354A1268117C5D
:1047B000334A526810786B460222FDF71AFF10B197
:1047C0004FF0FF30F0E79DF801009DF8001040EA3F
:1047D000012000B220800020E6E72DE9FE4F0746C9
:1047E000884692461D46DDF830B000260024244855
:1047F00090F8240010B1601EBDE8FE8F00202870E4
:104800001F48807A10B94FF0FF30F5E71C48007C54
:1048100010B94FF0FF30EFE71948007C10F0400F5F
:1048200001D0B01CC6B21648007C10F0200F01D099
:10483000B01CC6B21248007C10F0100F01D0B01CA2
:10484000C6B20F48007C10F0080F01D0B01DC6B2F0
:104850000B4A1268917A0A4A526810786B46022213
:10486000FDF7C7FE10B14FF0FF30C5E79DF801001E
:104870009DF8001040EA0129B14505DA0020BBE7A8
:104880007400002000000C42F74840684088B9EBF3
:10489000600F17DDF44A1268517CF34A52681078B1
:1048A0006B460122FDF7A5FE10B14FF0FF30A3E7E4
:1048B0009DF8000010F0100F04D0FEF72DF96FF0F6
:1048C000010099E75046FFF76BFBE74A1268D17A7F
:1048D000E54A526810786B463246FDF78AFE10B101
:1048E0004FF0FF3088E799FBF6F0401E8BF8000090
:1048F00000202870B4422AD0DB48007C10F0080F5A
:1049000025D0601C1DF800001DF8041040EA0120AD
:1049100000B2A8F80000E01C1DF80010A01C1DF853
:10492000000041EA002000B2A8F80200601D1DF856
:104930000010201D1DF8000041EA002000B2A8F878
:104940000400287840F008002870A01D84B2B4420A
:1049500013D0C548007C10F0400F0ED0601C1DF82D
:1049600000001DF8041040EA012000B238802878C9
:1049700040F040002870A01C84B2B44213D0BA4862
:10498000007C10F0200F0ED0601C1DF800001DF8F8
:10499000041040EA012000B27880287840F020001E
:1049A0002870A01C84B2B44213D0AF48007C10F031
:1049B000100F0ED0601C1DF800001DF8041040EA16
:1049C000012000B2B880287840F010002870A01CA8
:1049D00084B2002010E7F8B504460F461646A248F8
:1049E00090F8240010B94FF0FF30F8BD9E48807A4F
:1049F00010B94FF0FF30F8E79B4A1268917A9A4A53
:104A0000526810786B460222FDF7F3FD10B14FF0AB
:104A1000FF30EAE79DF801009DF8001040EA01250B
:104A2000A54203DA00203070401EDEE78E48406861
:104A30004088B5EB600F17DD8B4A1268517C8A4ABB
:104A4000526810786B460122FDF7D3FD10B14FF08C
:104A5000FF30CAE79DF8000010F0100F04D0FEF7F9
:104A60005BF86FF00100C0E7E2B27F4B1B68D97AB8
:104A70007D4B5B6818783B46FDF7BBFD10B14FF0EE
:104A8000FF30B2E795FBF4F0401E30700020ACE739
:104A90000146754880F8221000207047F8B504469A
:104AA0000D46164616B94FF0FF30F8BD6E48807AB5
:104AB00010B94FF0FF30F8E720128DF80000E0B297
:104AC0008DF801009DF8010028446749496849892B
:104AD000884202DD4FF0FF30E7E7634A1268117E3B
:104AE000614A526810786B460222FDF736FD10B11C
:104AF0004FF0FF30D9E7EAB25B4B1B68597D5A4B48
:104B00005B6818783346FDF728FD10B14FF0FF3091
:104B1000CBE70020C9E7F8B504460D46164616B99E
:104B20004FF0FF30F8BD5048807A10B94FF0FF3099
:104B3000F8E720128DF80000E0B28DF801009DF832
:104B400001002844484949684989884202DD4FF0FC
:104B5000FF30E7E7444A1268117E434A52681078F2
:104B60006B460222FDF7F9FC10B14FF0FF30D9E798
:104B7000EAB23D4B1B68597D3B4B5B681878334666
:104B8000FDF737FD10B14FF0FF30CBE70020C9E74C
:104B90002DE9F04385B005460E46904699463248C9
:104BA00090F8250020B14FF0FF3005B0BDE8F0834C
:104BB00016B94FF0FF30F8E7002423E0281B102837
:104BC00001DD102000E0281B87B23219394620464B
:104BD000FFF764FF10B14FF0FF30E6E701AA394656
:104BE0002046FFF798FF10B14FF0FF30DDE7301996
:104BF0003A4601A901F091FF10B16FF00100D4E72E
:104C0000E01984B2AC42D9DB4FEA28208DF80000CD
:104C100008F0FF008DF80100134A1268917E124AD5
:104C2000526810786B460222FDF797FC10B14FF0E6
:104C3000FF30BAE701210C4880F82510A0F8269033
:104C40000020B2E70146084890F8240008700020D0
:104C500070473EB504460D460348807A10F0010FB8
:104C600004D14FF0FF303EBD74000020B74991F8E9
:104C70002A006B4608220221FDF7BBFC10B14FF061
:104C8000FF30F0E701208DF80800B04991F82A00C4
:104C900002AB01220A21FDF760FC10B14FF0FF309A
:104CA000E1E79DF8000010F0010F02D16FF0010064
:104CB000D9E79DF8070010F0800F04D19DF8070098
:104CC00010F0400F02D06FF00200CCE79DF8010019
:104CD0009DF8021040EA012000B220809DF80300F8
:104CE0009DF8041040EA012000B260809DF80500A4
:104CF0009DF8061040EA012000B2A080B4F900003F
:104D00009249B1F92C104843001200B22080B4F946
:104D100002108E48B0F92E004143081200B26080A4
:104D2000B4F904108948B0F930004143081200B2C8
:104D3000A08015B12846FFF733F9002093E701461C
:104D4000824840688089088000207047F8B5054691
:104D50000F461446002C70D0B5F5FF5F01DDFF262D
:104D600005E0202D01DA012601E0C5F3471607B959
:104D70000127282C02DD4FF0FF30F8BD7348407D3D
:104D800028BB724890F8240038B10020FEF732FAB0
:104D900001216E4880F8201003E000216B4880F864
:104DA00020106A481630FEF7C0FF68481830FEF73A
:104DB00098FF66481A30FEF76FFF64481C30FEF714
:104DC0005EFF6248817A81771F30FEF752FF002034
:104DD000FDF783FF0020FEF7A5F800208DF8000006
:104DE0005A4A12689178594A526810786B460122E3
:104DF000FDF7B3FB10B14FF0FF30BEE740208DF858
:104E00000000524A1268D17B504A526810786B46B3
:104E10000122FDF7A2FB00B165E08DF800608DF87E
:104E200001704A4A1268117A484A526810786B46F3
:104E30000222FDF792FB08B155E047E00520FDF79F
:104E4000FAF94248407A072101EBC000C0B28DF860
:104E500000003E4A1268D1793C4A526810786B468D
:104E60000122FDF77AFB00B13DE020208DF8000023
:104E7000012C03D100208DF801000EE0052C03DC8D
:104E800001208DF8010008E0142C03DC02208DF8CD
:104E9000010002E003208DF801009DF801000721C8
:104EA00001EB8010C0B28DF80100284A1268917C95
:104EB000264A526810786B460222FDF74EFB00B17D
:104EC00011E0012121484175002056E71F4A1632A2
:104ED000002103E0505C00B105E0491C0C29F9D326
:104EE0004FF0FF3049E7FF2018490872FF211748AB
:104EF0004172C1724FF6FF71C181FF21817201744D
:104F0000012101730146887FFEF7BCF90F49C88A69
:104F1000FEF766FA0D49087EFEF723FA0B49488B27
:104F2000FDF720FF0949888BFEF769F80749C87F1C
:104F3000FDF785FF054890F8200010B10120FEF72D
:104F400059F9002101484175002016E7740000203E
:104F500010B5C8234FF48062F74940F6F630FFF7EA
:104F600017FE10BD10B586B00446F4A0006803908B
:104F7000F3A000680290F3A000680190F2A000681E
:104F8000009004F0030003A9085C8DF8140003A846
:104F9000C4F3C101405C8DF8150003A8C4F381116E
:104FA000405C8DF8160004F0030002A9085C8DF83F
:104FB000100002A8C4F3C101405C8DF8110002A8E2
:104FC000C4F38111405C8DF8120005AA032140F260
:104FD0002640FFF763FD18B14FF0FF3006B010BD5B
:104FE00004AA032140F22A40FFF758FD10B14FF008
:104FF000FF30F3E7019805900098049014F0040F37
:105000000BD09DF8140040F001008DF814009DF8BD
:10501000100040F001008DF8100014F0200F0BD0AC
:105020009DF8150040F001008DF815009DF8110065
:1050300040F001008DF8110014F4807F0BD09DF832
:10504000160040F001008DF816009DF8120040F0A7
:1050500001008DF8120005AA03214FF48860FFF7C4
:105060001DFD10B14FF0FF30B8E704AA032140F254
:105070003140FFF713FD10B14FF0FF30AEE7B348FA
:1050800004810020AAE71FB50446B048007A00F06A
:10509000030054F820000190AC48007A10F0040F8F
:1050A00002D0019840420190A848007AC0F3C100A4
:1050B00054F820000290A548007A10F0200F02D08A
:1050C000029840420290A148007AC0F3811054F83F
:1050D000200003909D48008910F4807F02D003983F
:1050E000404203909A49019880FB0101800F40EAF9
:1050F000810001909649029880FB0110820042EAEB
:10510000917002909249039880FB0110820042EA5C
:10511000917003900198000E8DF800000198000C2A
:105120008DF801000198000A8DF802000198C0B2C4
:105130008DF803006A4604214FF47470FFF7AEFC4B
:1051400018B14FF0FF3004B010BD0298000E8DF87A
:1051500000000298000C8DF801000298000A8DF8FA
:1051600002000298C0B28DF803006A4604214FF491
:105170007570FFF793FC10B14FF0FF30E3E7039831
:10518000000E8DF800000398000C8DF801000398C4
:10519000000A8DF802000398C0B28DF803006A4639
:1051A00004214FF47670FFF779FCCCE770B588B036
:1051B000064601A8FDF76CFCBDF804000021C903F8
:1051C00041EA5045C4036148007A00F0030056F8F4
:1051D000200005905D48007A10F0040F02D0059879
:1051E000404205905948007AC0F3C10056F82000AB
:1051F00006905648007A10F0200F02D006984042E0
:1052000006905248007AC0F3811056F820000790AB
:105210004E48008910F4807F02D0079840420790E2
:105220000598C117A0FB042301FB043100FB051006
:10523000810041EA927005900698C117A0FB0423F3
:1052400001FB043100FB0510810041EA92700690D9
:105250000798C117A0FB042301FB043100FB0510D4
:10526000810041EA927007900598000E8DF80800C1
:105270000598000C8DF809000598000A8DF80A00C1
:105280000598C0B28DF80B000698000E8DF80C0042
:105290000698000C8DF80D000698000A8DF80E0097
:1052A0000698C0B28DF80F000798000E8DF8100018
:1052B0000798000C8DF811000798000A8DF812006D
:1052C0000798C0B28DF8130002AA0C214FF4257084
:1052D000FFF7E4FB08B070BD30B585B004461DA2F1
:1052E00007CA02AB07C3C82C03DD4FF0FF3005B07F
:1052F00030BDC82090FBF4F0401E85B2280A8DF81E
:105300000000E8B28DF801006A46022140F2162042
:10531000FFF7C4FB10B14FF0FF30E8E702AA0C2101
:1053200040F6C120FFF7BAFB10B14FF0FF30DEE7C7
:10533000064884810020DAE7F98800084CCD6C002B
:105340000CC92C0036567600264666004001002027
:1053500009E3CA02FEF2ABC4AAF1DFDFBBAFDFDFB5
:105360000146FC4880890880002070472DE9FC47F1
:1053700006460F4616F0070F02D0B7F5C86F03DDDB
:105380004FF0FF30BDE8FC87384603F021F8814636
:10539000F14902F0D3FE80466846FEF7A2FC9DF874
:1053A0000000022806D0042816D0082826D010288D
:1053B00048D135E04FF08D41404603F051F8814629
:1053C00002F0CEFF84B2E549404603F049F8814639
:1053D00002F0C6FF85B238E04FF08C41404603F042
:1053E0003FF8814602F0BCFF84B2DD49404603F03D
:1053F00037F8814602F0B4FF85B226E04FF08B41CA
:10540000404603F02DF8814602F0AAFF84B2D54948
:10541000404603F025F8814602F0A2FF85B214E071
:105420004FF08A41404603F01BF8814602F098FF96
:1054300084B2CD49404603F013F8814602F090FF54
:1054400085B202E04FF0FF309CE700BF20128DF8DC
:105450000400E0B28DF8050028128DF80600E8B2CD
:105460008DF8070016F0010F14D001AA02214FF4A5
:10547000EA70FFF713FB10B14FF0FF3082E70DF138
:10548000060202214FF49270FFF708FB10B14FF0B3
:10549000FF3077E716F0020F14D001AA02214FF473
:1054A000EC70FFF7FBFA10B14FF0FF306AE70DF137
:1054B000060202214FF49470FFF7F0FA10B14FF09A
:1054C000FF305FE716F0040F14D001AA02214FF459
:1054D000EE70FFF7E3FA10B14FF0FF3052E70DF135
:1054E000060202214FF49670FFF7D8FA10B14FF080
:1054F000FF3047E7002045E738B50446002000901C
:1055000014F0010F04D09DF8000040F0300000902E
:1055100014F0020F04D09DF8000040F00C00009041
:1055200014F0040F04D09DF8000040F00300009038
:105530006A4601214FF4A470FFF7B0FA38BD38B5C0
:105540000446012C01DA012402E0042C00DD0424CD
:10555000601EC0B200906A46012140F24F10FFF772
:105560009DFA38BD38B50446052094FBF0F085B2AD
:1055700028128DF80000E8B28DF801006A46022179
:105580004FF4EF70FFF78AFA38BD38B504460520AE
:1055900094FBF0F085B228128DF80000E8B28DF887
:1055A00001006A4602214FF4ED70FFF777FA38BD2B
:1055B000F8B505460E464FF47A7095FBF0F000FB07
:1055C00006F4200E8DF80000200C8DF80100200A52
:1055D0008DF80200E0B28DF803006A4604214FF412
:1055E000AE70FFF75BFAF8BD38B50446052094FBB2
:1055F000F0F084B220128DF80000E0B28DF80100C6
:105600006A4602214FF4AD70FFF748FA38BD38B54D
:105610000446052094FBF0F084B220128DF80000BF
:10562000E0B28DF801006A4602214FF4AC70FFF73A
:1056300035FA38BD38B5044614B94FF0FF3038BDDF
:105640006A4604214FF45870FFF765FA10B14FF025
:10565000FF30F4E79DF8000000069DF8011040EAD5
:1056600001409DF8021040EA01209DF80310084314
:1056700020600020E3E738B50446200E8DF80000D6
:10568000200C8DF80100200A8DF80200E0B28DF8A0
:1056900003006A4604214FF45870FFF7FFF938BD44
:1056A00038B5044614B94FF0FF3038BD6A460421BE
:1056B0004FF47170FFF72FFA10B14FF0FF30F4E79D
:1056C0009DF8000000069DF8011040EA01409DF899
:1056D000021040EA01209DF80310084300EB80000F
:1056E000800020600020E0E738B504461420B4FBB9
:1056F000F0F4200E8DF80000200C8DF80100200A37
:105700008DF80200E0B28DF803006A4604214FF4E0
:105710007170FFF7C3F938BD38B5044664B1202075
:105720008DF8000028208DF8010030208DF802004F
:1057300038208DF8030004E0A3220421684601F01C
:1057400018FA6A46042140F69E20FFF7A7F9FDF7F4
:10575000E3F938BD40010020000048430000404606
:105760000000C045000040450000C04438B5044674
:1057700064B1C0208DF80000C2208DF80100C42063
:105780008DF80200C6208DF8030004E08B2204216E
:10579000684601F0EEF96A46042140F69820FFF7CA
:1057A0007DF9FDF7B9F938BD3EB504466CB1FCA1F1
:1057B000D1E900208968CDE9002002916A460921DB
:1057C0004FF49760FFF76AF93EBDF8A2D2E90010E6
:1057D0009268CDE9010200916A4609214FF4976071
:1057E000FFF75CF9F0E73EB5044602208DF80000B3
:1057F000CA208DF80100E3208DF8020009208DF801
:1058000003006A4604216820FFF748F9A3208DF8B9
:10581000000014F0400F09D0C0208DF80100C8200E
:105820008DF80200C2208DF8030006E0A3208DF859
:1058300001008DF802008DF8030014F4C07F09D038
:10584000C4208DF80400CC208DF80500C6208DF80A
:10585000060006E0A3208DF804008DF805008DF801
:105860000600A3208DF807008DF808008DF80900C8
:105870006A460A2140F6A720FFF710F914F0030F3B
:1058800003D020208DF8000002E0D8208DF8000021
:105890006A46012140F6B620FFF700F914F0200F08
:1058A00003D00120FFF780FF02E00020FFF77CFF1C
:1058B00014F4C07F21D014F4807F0CD0B2208DF876
:1058C00000008B208DF80100B6208DF802009B208F
:1058D0008DF803000BE0B0208DF8000080208DF8DB
:1058E0000100B4208DF8020090208DF803006A4674
:1058F000042140F6A220FFF7D1F814F0010F24D0C4
:10590000F8208DF800006A4601214FF40B60FFF784
:10591000C5F8FA210720FFF729FD0720FFF7ECFD66
:105920000120FFF70CFE6420FFF71CFE4FF4FA7015
:10593000FFF72BFEC821A048FFF73AFE2820FFF70B
:1059400053FE0A20FFF763FE08E0D8208DF8000020
:105950006A4601214FF40B60FFF7A0F814F0020F24
:1059600003D0D9208DF8000002E0D8208DF8000087
:105970006A46012140F23D70FFF790F814F0040FE1
:1059800003D00120FFF7F2FE02E00020FFF7EEFE59
:1059900014F0100F03D00120FFF7BEFE02E000203C
:1059A000FFF7BAFE44F0080084494881FDF7B4F8D7
:1059B00000208249887314F0400F03D00846807B92
:1059C000801D887314F4C07F04D07C48807B801DC8
:1059D0007A49887314F0140F04D07848807B103013
:1059E0007649887314F0030F04D07448807B001D3F
:1059F0007249887300203EBD014670484089088086
:105A0000002070472DE9F0410446E07800F0C00620
:105A1000E07800F03F05607810F0010F13D0EF1030
:105A20002846E91705EB5171C910A5EBC101491CC6
:105A300001F0FF086148006820B1604841460268F3
:105A40003846904700BF607810F0080F06D05B48DA
:105A5000406818B1B011594A516888470020BDE824
:105A6000F08110B586B0044655A207CA03AB07C340
:105A700056A207CA8DE80700012C09D0022C0ED1CE
:105A800003AA0B2140F68220FFF708F806B010BDEC
:105A90006A460B2140F68220FFF700F8F6E74FF048
:105AA000FF30F3E72DE9F04F8DB0074688461546E5
:105AB0009B46DDE9166A0024002030803F49887B40
:105AC000524605A9FEF787FF18B1601E0DB0BDE86C
:105AD000F08F3A48807A10F0140F7DD09DF81400B2
